:020000040800F2
:10000000D8080020250D0008FD0A0008FF0A000896
:10001000030B0008070B00080B0B00080000000092
:100020000000000000000000000000000F0B0008AE
:10003000110B000800000000130B0008893C0008A9
:100040003F0D00083F0D00083F0D00083F0D000860
:100050003F0D00083F0D00083F0D00083F0D000850
:100060003F0D00083F0D00083F0D00083F0D000840
:100070003F0D00083F0D00083F0D00083F0D000830
:100080003F0D00083F0D00083F0D00083F0D000820
:100090003F0D00083F0D00083F0D00083F0D000810
:1000A0003F0D00083F0D00083F0D00083F0D000800
:1000B0003F0D00083F0D00083F0D00083F0D0008F0
:1000C0003F0D00083F0D00083F0D00083F0D0008E0
:1000D0003F0D000899350008B5350008D3350008F4
:1000E0003F0D00083F0D00083F0D00083F0D0008C0
:1000F0003F0D00083F0D00083F0D00083F0D0008B0
:100100003F0D00083F0D00083F0D00083F0D00089F
:10011000413600085F3600083F0D00083F0D00081B
:100120003F0D00083F0D00083F0D00083F0D00087F
:100130003F0D00083F0D00083F0D00083F0D00086F
:100140003F0D00083F0D00083F0D00083F0D00085F
:100150003F0D00083F0D00083F0D00087B360008EA
:100160003F0D00083F0D00083F0D00083F0D00083F
:100170003F0D00083F0D00083F0D00083F0D00082F
:100180003F0D00083F0D000800F002F800F0B6F83F
:100190000AA090E8000C82448344AAF10107DA45E2
:1001A00001D100F0ABF8AFF2090EBAE80F0013F07E
:1001B000010F18BFFB1A43F001031847AC6200009F
:1001C000CC6200000A444FF0000C10F8013B13F021
:1001D000070408BF10F8014B1D1108BF10F8015BA0
:1001E000641E05D010F8016B641E01F8016BF9D193
:1001F00013F0080F1EBF10F8014BAD1C0C1B09D1EA
:100200006D1E58BF01F801CBFAD505E014F8016B5B
:1002100001F8016B6D1EF9D59142D6D370470000ED
:100220000023002400250026103A28BF78C1FBD8FF
:10023000520728BF30C148BF0B6070476E2904F0D9
:100240004D82702904F0A583662906F08A8065290D
:1002500006F08780672906F08480612906F0838094
:1002600003681B0A28BF41F08001692903F0B887A1
:10027000642903F0B587752903F0B2876F2904F06C
:100280003283782904F07183E92904F0CD82E429CE
:1002900004F0CA82F52904F0C782EF2904F02F8305
:1002A000F82904F070830368DB0928BF41F080015E
:1002B000632904F04E82732904F05382E32904F089
:1002C000CD87F32904F0D287002070471FB506F0D0
:1002D0003EF89DE8030004F039F905F085F80400C4
:1002E0000020002105F0B8FD401C606000200021C6
:1002F00005F0C8FDE0601FBD10B510BD05F04FF85A
:100300001146FFF7E3FF00F098FB05F02DF903B469
:10031000FFF7F2FF03BC05F05DF9000008B5F849EE
:100320000968009100BFEFF3058139B900BFF449B6
:100330000968009A891A8142F9D309E006E04FF072
:10034000E021096901F4803101B1401E0028F6D195
:1003500008BD2DE9F04399B00546894616460027A9
:10036000B8466421684604F0A7F8E648FFF7D6FFD0
:1003700000BFE54803F067F80028FADC2946E248A8
:1003800003F0E7F8002700BF4FF47A70FFF7C6FFCD
:10039000DD4803F058F804462146DC4802F0F2FD3F
:1003A00054B10DF80740781CC7B24946684604F0BE
:1003B0002BF808B14FF00108B8F1000F02D1701E00
:1003C000061EE1D10024404619B0BDE8F0831CB5FB
:1003D0000121082001F086FA4FF4604000900120CE
:1003E0008DF8040002208DF8050000208DF806002D
:1003F0008DF807006946C64800F0AAFD1CBD10B57F
:100400000024C04A0021C34803F0EFF94621C14847
:1004100003F029FC04462CB14FF40051BC4800F015
:1004200013FE01E000BFFEE710BD10B503F0DEFDD6
:10043000B949087003F015FEB849087003F014FEBE
:10044000B649487003F013FEB449887003F012FEF9
:10045000B249C87010BD10B59AB0B14890ED000A0D
:10046000BDEEC00A10EE104AAC48009403788278C2
:10047000ACA101A803F074FE01A9A44803F069F837
:100480001AB010BD00B52DED048B81B000231022F1
:100490004621A04803F07CFBA648FFF73FFF02205F
:1004A000A54B0022462100909A4803F000FB42F23F
:1004B0001070FFF733FFA04840789F49097840EA61
:1004C00001209E4908800846008800EE100AB8EE18
:1004D000400A10EE100A05F0C9FE41EC190B9FED21
:1004E000980B53EC102B05F015FD41EC180B05F0A3
:1004F000DFFC8B49086001B0BDEC048B00BD10B57A
:10050000914A92A192A0FFF724FF8F4A8FA193A056
:10051000FFF71FFF8C4A8DA194A0FFF71AFF8A4AAC
:100520008AA198A0FFF715FF10BD10B5864A87A1D4
:1005300097A0FFF70EFF844A84A19DA0FFF709FF53
:10054000A3A1724803F005F8A4A16F4803F001F8D5
:10055000A648FFF7E3FEA6A16C4802F0FAFFA8A1A7
:10056000694802F0F6FFAA48FFF7D8FEA9A167483C
:1005700002F0EFFFAAA1644802F0EBFFA448FFF7E6
:10058000CDFEADA1614802F0E4FF10BD30B585B0ED
:1005900004460D462A46ABA1684603F0E1FD00BFC4
:1005A000694AACA16846FFF7D4FEAB49086008462B
:1005B00000680028F4D008460068012812D1A7A1DD
:1005C000524802F0C6FF21464F4802F0C2FF42F2F5
:1005D0001070FFF7A3FEA6A14B4802F0BAFF00205F
:1005E0009D49086005B030BD30B5B3B004460D4636
:1005F0002B4622469F491AA803F09CFD1AAA9EA1E9
:1006000001A803F0ADFD00BFA24A50A101A8FFF769
:10061000A0FE91490860084600680028F4D008460A
:10062000006801280FD19CA1384802F092FF354A9A
:1006300046A19EA0FFF78DFEA1A1344802F089FFDC
:1006400000208549086033B030BD10B586B004463F
:100650002246A1A101A803F083FD00BF3A4A3BA1B5
:1006600001A8FFF776FE7C4908600846006800286C
:10067000F4D008460068012806D19AA1234802F068
:1006800068FF00207449086006B010BD00B599B03D
:100690004FF4FA6297A199A0FFF75BFE6E490860DC
:1006A00008460068012828D10020086000BF6422A5
:1006B0006946154802F019FF0028F8D000BF6422EF
:1006C0006946114802F011FF002817D08E4968468C
:1006D00003F09AFE28B14FF480510D4800F0B4FCAD
:1006E0002BE18A49684603F08FFE28B14FF4005190
:1006F000074800F0A9FC20E10AE135E12EE1000005
:1007000044010020A0860100004400400048004051
:10071000000C0240005400400800002009000020A6
:1007200040000020532D25642D25642D25642D6166
:100730000000000020BF02003B0000203E0000201F
:10074000333333333333F33F80841E004F4B000089
:1007500041542B434D47463D310D0A0041542B4334
:100760004E4D493D322C320D0A00000041542B43BE
:100770004D4744413D2244454C20414C4C220D0AFA
:100780000000000041542B434C49503D310D0A00FC
:1007900041542B53415042523D332C312C22436F54
:1007A0006E74797065222C2247505253220D0A0034
:1007B00041542B53415042523D332C312C22415055
:1007C0004E222C226D5F776170220D0A000000001E
:1007D000436F6E6669672041504E000041542B53B1
:1007E000415042523D312C310D0A000000093D00BC
:1007F000436F6E666967205341504252000000000B
:1008000041542B48545450494E49540D0A0000009D
:1008100040420F00436F6E66696720485454500091
:1008200041542B48545450504152413D2243494475
:10083000222C310D0A000000436F6E666967204369
:100840004944000041542B434D47533D2225732218
:100850000D0A00003E0000004C00002053656E644D
:10086000696E6720534D53202E2E2E0D0A00000076
:100870001A0000006A00002041542B485454505084
:100880004152413D2255524C222C222573220D0A01
:10089000000000008096980055706C6F6164696E6E
:1008A0006720646174612E2E2E0D0A0041542B487E
:1008B000545450414354494F4E3D300D0A000000FE
:1008C00055706C6F6164696E6720737563636573DF
:1008D00073210D0A0000000041544425733B720A45
:1008E0000000000043616C6C207375636365737373
:1008F0000D0A00002B434D47523A000041542B4350
:100900004D47523D300D0A00580000205C00002089
:100910006A49684603F078FD28B14FF48051684871
:1009200000F094FB09E06749684603F06DFD20B1D3
:100930004FF40051624800F089FBAFF2F0116846B5
:1009400003F062FD50B101205F49086069465F48CD
:1009500002F0FFFD6421684603F0AEFD5A480068CE
:1009600000283FF4ACAE03E059A1584802F0F1FD75
:1009700019B000BD00B58BB00121042000F0FBFFD1
:100980000121082000F0AEFF4FF4805009900220B2
:100990008DF8280003208DF8290000208DF82A000A
:1009A0008DF82B0009A9464800F0D2FA02220C214A
:1009B000434800F058FB5420ADF8180044F61F607F
:1009C00007900020ADF82000ADF81A0006A94248B3
:1009D00001F089F96020ADF804000120ADF80600AF
:1009E0000020ADF8100001A93B4801F011FA0821E0
:1009F000394801F09AFB0121374801F0DFF9012164
:100A0000354801F0F9F90BB000BD10B53348006866
:100A1000012811D132480068401C3149086008465D
:100A200000683049884207D12F4A11789078FFF743
:100A3000DBFD00202A49086010BD00F0D9F803F062
:100A400074F9FFF7C4FC2948FFF768FCFFF792FF31
:100A50004FF416520321264802F00AFC4FF41652B6
:100A600005211A4802F004FCFFF7C9FCFFF747FD17
:100A7000FFF75BFD28211E20FFF7B6FD1D48FFF79D
:100A80004DFC4FF400410E4800F0DEFA15E04FF443
:100A900080410B4800F0D8FA1748006844F62061FE
:100AA0004843642190FBF1F00B4934310860FFF7B3
:100AB000BCFCFFF7E7FCFFF7CEFCE8E76000002096
:100AC000000C0240650000204C000020004800405F
:100AD0004572726F720000000008004004000020A0
:100AE00000000020002D31010900002040420F00CD
:100AF0000044004080841E0044000020704700BF76
:100B0000FEE700BFFEE700BFFEE700BFFEE770475D
:100B1000704770470CB5002001900090764800683F
:100B200040F480307449086000BF7348006800F4E6
:100B3000003000900198401C0190009818B901986D
:100B4000B0F5A04FF1D16C48006800F4003010B14E
:100B50000120009001E0002000900098012846D17B
:100B600065484030006840F080506349403108607B
:100B70006248006840F44040604908605E480830C0
:100B800000685D49083108600846006840F400408C
:100B900008600846006840F4A05008605848091FE3
:100BA0000860081F006840F08070091F086000BFDF
:100BB0005148006800F000700028F9D040F205703C
:100BC000504908604C480830006820F003004A494A
:100BD000083108600846006840F00200086000BF65
:100BE00045480830006800F00C000828F8D10CBD1A
:100BF00010B54548006840F47000434908603E481D
:100C0000006840F001003C49086000203A49083182
:100C10000860394800683D490840374908603C4849
:100C2000091D0860081F006820F48020091F086063
:100C3000002031490C310860FFF76CFF4FF0006075
:100C400031498039086010BD70B5002000220223B0
:100C500000240221284D08352D6805F00C0020B134
:100C6000042806D0082834D107E02A4D2A4E3560E2
:100C700033E02A4D284E35602FE01F4D2D1D2D6885
:100C8000C5F380541C4D2D1D2D6805F03F0154B156
:100C9000224DB5FBF1F5184E361D3668C6F38816A1
:100CA00005FB06F209E01B4DB5FBF1F5124E361DB2
:100CB0003668C6F3881605FB06F20F4D2D1D2D680C
:100CC000C5F301456D1C6B00B2FBF3F5124E3560A8
:100CD00003E0104D104E356000BF00BF064D0835D3
:100CE0002D68C5F303150E4E705D0B4D2D68C54084
:100CF000094E356070BD00000038024000700040B1
:100D000008544007003C024088ED00E0FFFFF6FE7B
:100D1000103000240024F400B400002000127A00F7
:100D2000B80000200948804709480047FEE7FEE771
:100D3000FEE7FEE7FEE7FEE7FEE7FEE7FEE7FEE78B
:100D400004480549054A064B70470000F10B0008AE
:100D500089010008D8020020D8080020D80400200B
:100D6000D804002032490143324A1160704770B5FF
:100D7000002100230F22C4781CB32E4C246804F4F5
:100D8000E064C4F5E064C4F30721C1F10404E3B2F4
:100D90000A4144789C40E1B28478144021430C0716
:100DA000210E254C05786155047804F01F050124B7
:100DB000AC4005786D11AD0005F1E025C5F80041A6
:100DC00009E0047804F01F050124AC401B4D0678AF
:100DD000761145F8264070BD194A0A400243154B6A
:100DE0001B1F1A60704739B1124A121D1268024364
:100DF000104B1B1D1A6006E00E4A121D126882433A
:100E00000C4B1B1D1A607047042808D14FF0E021DD
:100E1000096941F004014FF0E022116107E04FF051
:100E2000E021096921F004014FF0E02211617047CF
:100E30000000FA050CED00E000E400E080E100E0D5
:100E400080FFFF1F10B504469848844208D1012155
:100E5000084600F0B2FD0021012000F0AEFD76E072
:100E60009348844208D10121022000F0A6FD002110
:100E7000022000F0A2FD6AE08E48844208D10121E0
:100E8000042000F09AFD0021042000F096FD5EE0B1
:100E90008948844208D10121082000F08EFD0021FC
:100EA000082000F08AFD52E08448844208D10121E4
:100EB000102000F082FD0021102000F07EFD46E0B1
:100EC0007F48844208D10121202000F076FD0021D6
:100ED000202000F072FD3AE07A48844208D10121D6
:100EE000402000F06AFD0021402000F066FD2EE069
:100EF0007548844208D10121802000F05EFD002168
:100F0000802000F05AFD22E07048844208D101217F
:100F1000801500F052FD0021A01500F04EFD16E0F6
:100F20006B48844208D10121401500F046FD0021A4
:100F3000601500F042FD0AE06648844207D10121B5
:100F4000001500F03AFD0021201500F036FD10BD1F
:100F5000F0B50A4600210023002400BF3DE0012532
:100F600005FA01F3156805EA03049C4234D10568CB
:100F70004F000326BE40B543056015794E00B540CD
:100F80000668354305601579012D02D01579022DCB
:100F900016D185684F000326BE40B543856055795C
:100FA0004E00B540866835438560456801268E4011
:100FB000B5434560456896798E40B6B23543456085
:100FC000C5684F000326BE40B543C560D5794E00C5
:100FD000B540C6683543C560491C1029BFD3F0BD74
:100FE0004FF6FF7101600021017141718171C17182
:100FF000704708B54FF480320092009A0A4300927D
:10100000009AC261C161009AC261C2690092C2695C
:10101000009208BD0246002013690B400BB101206D
:1010200000E0002070470146086980B27047024620
:10103000002053690B400BB1012000E000207047F5
:101040000146486980B27047018370474183704709
:101050000AB1018300E041837047416170474269F2
:101060004A4042617047F0B5002300244D07ED0E61
:1010700002FA05F3CE1000F1200555F826504E0770
:10108000F70E0F26BE40B543CF1000F1200646F8FC
:101090002750CE1000F1200555F8265045EA0304EC
:1010A000CE1000F1200545F82640F0BD00000240BA
:1010B0000004024000080240000C02400010024000
:1010C0000014024000180240001C024000200240B0
:1010D000002402400028024010B50446F84884422B
:1010E00009D10121480500F09BFC00214FF40010BC
:1010F00000F096FC18E0F348844209D101218805EC
:1011000000F08EFC00214FF4800000F089FC0BE021
:10111000ED48844208D10121C80500F081FC00217E
:101120004FF4000000F07CFC10BD2DE9FF470446A1
:101130000D460026B1460427DFF89083A6884FF6B7
:10114000C0700640684600F0FCFADDF80880E04810
:10115000B8FBF0F01FFA80F946EA0906A68020885D
:101160004FF6FE71084020800026DA492868884240
:101170000CD828684000B8FBF0F087B2042F00DAE2
:1011800004273E4309F10100208427E0E8884BF65C
:10119000FF71884206D1286800EB4000B8FBF0F0F0
:1011A00087B209E0286800EBC00101EB0010B8FB32
:1011B000F0F087B247F48047C7F30B0008B947F057
:1011C000010747F4004006434FF4967009FB00F016
:1011D0004FF47A7190FBF1F0401C2084A6832088A4
:1011E00040F00100208026884FF6F5300640A888A0
:1011F0006989084306432680A889298908432081F4
:10120000BDE8FF8741F288310160002181804BF603
:10121000FF71C1800021018141814FF480418181B2
:10122000704721B1028842F00102028004E0028886
:101230004FF6FE731A400280704729B1828C4FF638
:10124000EF731A40828403E0828C42F010028284A1
:1012500070470A460021818C4FF6F073194002F066
:101260000F0319438184704721B1028842F48072D0
:10127000028004E002884FF6FF631A400280704744
:1012800021B1028842F40072028004E002884FF625
:10129000FF531A400280704712B141F0010101E092
:1012A00001F0FE010182704721B1028842F48062A0
:1012B000028004E002884FF6FF331A400280704734
:1012C0000A46002181894FF60173194002F0FE039E
:1012D00019438181704721B1828942F001028281E4
:1012E00004E082894FF6FE731A408281704721B173
:1012F000028842F04002028004E002884FF6BF7389
:101300001A400280704721B1028842F400420280F4
:1013100003E00288C2F30E020280704721B90288FE
:1013200042F08002028004E002884FF67F731A4088
:1013300002807047B1F5804F05D0828B4BF6FF736A
:101340001A40828303E0828B42F48042828370479A
:10135000B1F5006F04D1028842F40062028004E01B
:1013600002884FF2FF731A4002807047B1F5005FA8
:1013700004D1028842F40052028004E002884DF653
:10138000FF731A400280704721B1028842F01002B8
:10139000028004E002884FF6EF731A400280704723
:1013A000018270470146088AC0B2704721B10288A5
:1013B00042F48052028004E002884EF6FF731A4025
:1013C00002807047B1F5006F04D1028842F40062D8
:1013D000028004E002884FF2FF731A4002807047D7
:1013E00021B1028842F02002028004E002884FF618
:1013F000DF731A40028070470146088B0012704765
:1014000021B1828842F40062828004E082884FF237
:10141000FF731A408280704721B1828842F4805263
:10142000828004E082884EF6FF731A408280704703
:1014300008B50246002000900092009808440090F1
:101440000098008808BD1AB183880B43838002E0AE
:1014500083888B438380704770B502460024002543
:1014600000230020958A138B1B0445EA030626F00F
:101470007F4404EA01068E4201D1012000E00020F1
:1014800070BD10B501460020002300228B8A0A8B14
:10149000120443EA020424F07F4010BD0CB502465A
:1014A000002000230193009300920B0F019321F081
:1014B0007F41019B83B1009B1433009310E0000037
:1014C0000054004000580040005C004000127A00C8
:1014D00040420F00A0860100090C009B18330093C6
:1014E000009B1B680B400BB1012000E000200CBDED
:1014F000002221F07F42D3438382704730B50246F9
:1015000000200023948801F0E06504EA154321F0EF
:101510007F41948A0C4014B10BB1012000E00020FF
:1015200030BD002221F07F42D34383827047000008
:10153000F948006840F00100F74908600020F649CA
:1015400008310860F4480068F4490840F24908602E
:10155000F348091D0860F348EF4984310860F048FA
:101560001038091D0860EC48006820F48020EA4922
:1015700008600020E8490C310860E7498C310860B8
:1015800070470021E44A921C1170114608707047A0
:1015900010B501460022002300204A11012A02D181
:1015A000DD4C236808E0022A03D1DB4C7034236849
:1015B00002E0D94C7434236801F01F0201249440E6
:1015C0001C400CB1012000E0002010BD38B5002007
:1015D00000900024002500BF3120FFF7D9FF054609
:1015E0000098401C00900098B0F5A04F01D0002D4D
:1015F000F2D03120FFF7CCFF08B1012400E0002435
:10160000204638BD01460020C34A106820F0F8008B
:1016100040EAC10010607047C3490860704700216C
:10162000BD4A703211701170012802D004280AD10D
:1016300004E00121B84A7032117005E00521B64A74
:101640007032117000E000BF00BF7047B7490860FA
:10165000704770B5049C41EA82150126C6EB53061B
:1016600045EA0645054345EA0465AB4E361D35603F
:1016700070BDAD4908667047820142EA0172A64B0F
:1016800084331A607047A8498866704710B5830193
:1016900043EA016343EA02739F4C8834236010BD20
:1016A000A14908677047A049C864704702460020F6
:1016B000994B0833186820F0EC6042EA01031843A4
:1016C000954B08331860704702460020924B083350
:1016D000186820F0784042EA010318438E4B083323
:1016E00018607047014600208B4A0832106820F0CD
:1016F000030008431060704787480830006800F016
:101700000C00704701460020834A0832106820F020
:10171000F000084310607047014600207E4A0832FE
:10172000106820F4E0500843106070470146002024
:10173000794A0832106820F4604040EAC100106025
:101740007047F0B500210022002402250026022364
:10175000714F08373F6807F00C0121B1042905D00B
:10176000082937D105E0724F076036E0714F0760F6
:1017700033E0694F3F1D3F68C7F38056664F3F1DFA
:101780003F6807F03F036EB16A4FB7FBF3F7DFF82E
:1017900088C10CF1040CDCF800C0CCF3881C07FBFA
:1017A0000CF40CE0624FB7FBF3F7DFF86CC10CF1FF
:1017B000040CDCF800C0CCF3881C07FB0CF4564F7B
:1017C0003F1D3F68C7F301477F1C7D00B4FBF5F761
:1017D000076002E0564F076000BF00BF4E4F08375A
:1017E0003F6807F0F0010909534F7A5C0768D7405A
:1017F0004760494F08373F6807F4E051890A4E4F68
:101800007A5C4768D7408760434F08373F6807F4E2
:101810006041490B484F7A5C4768D740C760F0BDCC
:10182000002100F44072B2F5407F0AD13A4A0832F2
:10183000116821F4F811414A02401143364A083236
:101840001160354A70321268C0F30B031A43324BF1
:1018500070331A607047354944390860704733491E
:1018600040390860704736490860704701460020DB
:10187000294A8C32106820F01F004A1E1043264A65
:101880008C321060704701460020234A8C32106869
:1018900020F4F8504A1E40EA02201F4A8C321060A1
:1018A0007047014600201C4A8C32106820F440101A
:1018B00008431060704701460020174A8C321068B8
:1018C00020F4400008431060704701460020124A8F
:1018D0008C32106820F4403008431060704719497A
:1018E0000860704739B10C4A3032126802430A4B23
:1018F00030331A6006E0084A303212688243064BE1
:1019000030331A607047F9B1034A34321268024327
:10191000014B34331A601CE000380240FFFFF6EA46
:10192000103000240030002000004742800E474263
:101930000024F40000127A00C8000020FFFCFF0F12
:101940005C014742E01147428F4A126882438E4B46
:101950001A60704739B18C4A121D126802438A4BD3
:101960001B1D1A6006E0884A121D12688243864BCE
:101970001B1D1A60704739B1834A0C32126802434A
:10198000814B0C331A6006E07F4A0C3212688243A6
:101990007D4B0C331A60704739B17B4A10321268A4
:1019A0000243794B10331A6006E0774A103212680E
:1019B0008243754B10331A60704739B1724A243A2A
:1019C00012680243704B243B1A6006E06E4A243AC8
:1019D000126882436C4B243B1A60704739B16A4AE3
:1019E000203A12680243684B203B1A6006E0664AC0
:1019F000203A12688243644B203B1A60704739B129
:101A0000614A1C3A126802435F4B1C3B1A6006E0B5
:101A10005D4A1C3A126882435B4B1C3B1A6070475C
:101A200039B1594A143A12680243574B143B1A60B1
:101A300006E0554A143A12688243534B143B1A602D
:101A4000704739B1504A103A126802434E4B103B6E
:101A50001A6006E04C4A103A126882434A4B103B27
:101A60001A60704739B1484A1C3212680243464B2B
:101A70001C331A6006E0444A1C3212688243424B0F
:101A80001C331A60704739B13F4A20321268024352
:101A90003D4B20331A6006E03B4A203212688243F5
:101AA000394B20331A60704739B1374A24321268F3
:101AB0000243354B24331A6006E0334A243212685D
:101AC0008243314B24331A60704739B12E4A2C328D
:101AD000126802432C4B2C331A6006E02A4A2C323F
:101AE00012688243284B2C331A60704739B1264A5A
:101AF000303212680243244B30331A6006E0224A27
:101B0000303212688243204B30331A60704701280C
:101B100008D11D493C31096841F008011A4A3C329C
:101B2000116007E018493C31096821F00801164AA4
:101B30003C321160704739B1134A273A1278024398
:101B4000114B273B1A7006E00F4A273A127882435E
:101B50000D4B273B1A7070470B484030006840F02F
:101B60008070094940310860704701460020064AEC
:101B7000283A12680A400AB1012000E000207047AC
:101B800001492639087070473438024010B50446C0
:101B9000FE48844208D101210846FFF752FF002188
:101BA0000120FFF74EFF9DE0B4F1804F08D10121E5
:101BB0000846FFF735FF00210120FFF731FF91E0D4
:101BC000F348844208D101210220FFF729FF0021B8
:101BD0000220FFF725FF85E0EE48844208D101216D
:101BE0000420FFF71DFF00210420FFF719FF79E013
:101BF000E948844208D101210820FFF711FF0021A4
:101C00000820FFF70DFF6DE0E448844208D1012170
:101C10001020FFF705FF00211020FFF701FF61E012
:101C2000DF48844208D101212020FFF7F9FE00217E
:101C30002020FFF7F5FE55E0DA48844208D1012163
:101C40000220FFF7FEFE00210220FFF7FAFE49E026
:101C5000D548844209D101210804FFF7F2FE002192
:101C60004FF48030FFF7EDFE3CE0D048844209D1CC
:101C700001214804FFF7E5FE00214FF40030FFF793
:101C8000E0FE2FE0CA48844209D101218804FFF711
:101C9000D8FE00214FF48020FFF7D3FE22E0C54894
:101CA000844208D101214020FFF7BAFE00214020E4
:101CB000FFF7B6FE16E0C048844208D1012180201B
:101CC000FFF7AEFE00218020FFF7AAFE0AE0BB4826
:101CD000844207D101218015FFF7A2FE0021A01543
:101CE000FFF79EFE10BD00220288A84B98420ED03E
:101CF000AC4B98420BD0B0F1804F08D0A44B984227
:101D000005D0A44B984202D0A34B984204D14FF681
:101D10008F731A404B881A43A04B984207D0A04BB0
:101D2000984204D04FF6FF431A400B891A430280B1
:101D30004B68C3620B880385944B984202D0994B41
:101D4000984201D18B7A03860123838270474FF03A
:101D5000FF31416000210180018141808172704723
:101D60000185828270470A46002101884FF68F73F1
:101D7000194011430180704741627047C16270474A
:101D80000146486A70470146088D704721B10288B4
:101D900042F00202028004E002884FF6FD731A400E
:101DA0000280704721B1028842F00402028004E000
:101DB00002884FF6FB731A400280704721B10288F7
:101DC00042F08002028004E002884FF67F731A40DE
:101DD0000280704702884FF6F7731A40028002882B
:101DE0000A430280704702884FF6FF431A40028080
:101DF00002880A430280704721B1028842F0010242
:101E0000028004E002884FF6FE731A400280704799
:101E100070B5002400220023058C4FF6FE76354075
:101E20000584028C8388048B4FF68F752C40B51E79
:101E30002C400D882C43751E2A408D892A434D88DD
:101E40002A43524DA84202D0564DA84213D14FF614
:101E5000F7752A40CD892A434FF6FB752A408D88B5
:101E60002A434FF6FF652B404FF6FF552B400D8A56
:101E70002B434D8A2B43838004838D684563028402
:101E800070BD70B5002400220023058C4FF6EF765C
:101E900035400584028C8388048B48F6FF752C40FE
:101EA0004FF6FF452C400D884FF6FF7606EA0525D4
:101EB0002C434FF6DF752A408D8906EA05152A4323
:101EC0004D8806EA05152A43304DA84202D0354D0B
:101ED000A8421DD14FF67F752A40CD894FF6FF7677
:101EE00006EA05152A434FF6BF752A408D8806EA93
:101EF00005152A434FF6FF352B404FF2FF752B4057
:101F00000D8A06EA85052B434D8A06EA85052B4393
:101F1000838004838D688563028470BD70B500245E
:101F200000220023058C4FF6FF6635400584028CA5
:101F30008388848B4FF68F752C404FF6FC752C40B0
:101F40000D882C434FF6FF552A408D894FF6FF76BA
:101F500006EA05252A434D8806EA05252A430B4D46
:101F6000A84202D00F4DA84238D14FF2FF752A4047
:101F7000CD894FF6FF7606EA05252A434FF6FF3551
:101F80002A408D8806EA05252A4319E00000014011
:101F90000004004000080040000C00400010004019
:101FA0000014004000040140004001400044014092
:101FB0000048014000180040001C00400020004084
:101FC0004EF6FF752B404DF6FF752B400D8A06EA45
:101FD00005152B434D8A06EA05152B438380848320
:101FE0008D68C563028470BD70B500220023002493
:101FF000058C4EF6FF7635400584038C8488828BF1
:1020000048F6FF752A404FF6FF452A400D884FF6E7
:10201000FF7606EA05252A434DF6FF752B408D898C
:1020200006EA05352B434D8806EA05352B43FE4D60
:10203000A84202D0FD4DA84208D14BF6FF752C40B6
:102040000D8A4FF6FF7606EA85152C43848082833D
:102050008D680564038470BD00210180418081800A
:1020600081608181C18101824182704770B50346E0
:10207000002000241846183001258D40ACB21D8C7C
:10208000A5431D8409B108290AD100EB6100056848
:102090004FF68F76354005600568154305600FE003
:1020A0000D1FC5F34E052844056848F6FF763540F8
:1020B000056005684FF6FF7606EA0226354305609F
:1020C00070BD4163704781637047C16370470164AD
:1020D00070470A460021018B4FF68F731940114358
:1020E000018370470A460021018B48F6FF731940AF
:1020F0004FF6FF7303EA02231943018370470A4630
:102100000021818B4FF68F731940114381837047F3
:102110000A460021818B48F6FF7319404FF6FF7382
:1021200003EA02231943818370470A460021018B89
:102130004FF6F77319401143018370470A46002197
:10214000018B4FF2FF7319404FF6FF7303EA02232E
:102150001943018370470A460021818B4FF6F773BC
:1021600019401143818370470A460021818B4FF249
:10217000FF7319404FF6FF7303EA0223194381836B
:1021800070470A460021018B4FF6FB73194011433B
:10219000018370470A460021018B4FF6FF33194037
:1021A0004FF6FF7303EA02231943018370470A467F
:1021B0000021818B4FF6FB731940114381837047D7
:1021C0000A460021818B4FF6FF3319404FF6FF730B
:1021D00003EA02231943818370470A460021018BD9
:1021E0004FF67F7319401143018370470A4600215F
:1021F000018BC1F30E014FF6FF7303EA022319436B
:10220000018370470A460021818B4FF67F73194086
:102210001143818370470A460021818BC1F30E016F
:102220004FF6FF7303EA02231943818370470A467E
:102230000021018C4FF6FD73194011430184704752
:102240000A460021018C4FF6F773194011430184AF
:1022500070470A460021018C4FF6DF7319404FF694
:10226000FF7303EA02131943018470470A460021F1
:10227000018C4FF67F7319404FF6FF7303EA021388
:102280001943018470470A460021018C4FF6FF5321
:1022900019404FF6FF7303EA022319430184704784
:1022A0000A460021018C4FF2FF7319404FF6FF736D
:1022B00003EA02231943018470470A460021018C76
:1022C0004DF6FF7319404FF6FF7303EA02331943CB
:1022D0000184704730B5002301248C40A3B2048CE4
:1022E0009C430484048C02FA01F5ADB22C430484AF
:1022F00030BD30B5002304248C40A3B2048C9C4331
:102300000484048C02FA01F5ADB22C43048430BD80
:10231000828B4FF2FF331A408283828B4FF6FF731A
:1023200003EA01231A4382837047F0B50C46154631
:10233000002100220026078C4EF6FF7C07EA0C07DE
:102340000784818B028C4FF6FF7707EA043640F64C
:10235000FF4739404FF6FF7707EA052739434FF625
:10236000FF7707EA0337394345F6FF773A4046F4EB
:1023700080573A4381830284F0BD828B4FF6F3731A
:102380001A408283828B0A4382837047F0B50C46E1
:102390001546002100220026078C4FF6FF6C07EA45
:1023A0000C070784818B028C4FF6FF7707EA04261F
:1023B0004FF60C7739404FF6FF7707EA03172F43A4
:1023C00039434FF2FF573A4046F480773A438183CE
:1023D0000284F0BD028B4FF2FF331A400283028B5E
:1023E0004FF6FF7303EA01231A4302837047F0B5E7
:1023F0000C461546002100220026078C4FF6EF7C84
:1024000007EA0C070784018B028C4FF6FF7707EA77
:10241000041640F6FF4739404FF6FF7707EA0337C7
:1024200039434FF6FF7703E000000140000401400C
:1024300007EA052739434FF65F773A4046F0100721
:102440003A4301830284F0BD028B4FF6F3731A40C6
:102450000283028B0A4302837047F0B50C4615468F
:1024600000210022068C4FF6FE773E400684018B49
:10247000028C4FF60C7631407E1C06EA03162E4382
:1024800031434FF6F576324044F001063243018382
:102490000284F0BD70B505460C46208850B92389EA
:1024A000A28861882846FFF7D8FFE1882846FFF711
:1024B000CBFF25E0208804280AD12389A2886188DF
:1024C0002846FFF794FFE1882846FFF783FF17E0CF
:1024D000208808280AD12389A28861882846FFF726
:1024E00055FFE1882846FFF748FF09E02389A288C5
:1024F00061882846FFF719FFE1882846FFF708FFA3
:1025000070BD002101804180012181800021C180B6
:10251000018170472DE9F04105460C460026012750
:10252000608808B9022600E00026A088012801D1B1
:10253000022700E001272088A0B92389A2886188AA
:102540002846FFF78AFFE1882846FFF77DFF2389A9
:102550003A4631462846FFF74AFFE1882846FFF70A
:1025600039FF13E02389A28861882846FFF73FFFDF
:10257000E1882846FFF72EFF23893A463146284650
:10258000FFF76BFFE1882846FFF75EFFBDE8F081AB
:102590000146486B70470146886B70470146C86B1F
:1025A00070470146086C70470A884B881A438B882D
:1025B0001A43CB881A430B891A434B891A438B89D8
:1025C0001A43A0F844207047002101804180818097
:1025D000C180018141818181704731B1B0F84420CF
:1025E00042F40042A0F8442005E0B0F84420C2F3D1
:1025F0000E02A0F84420704721B1828842F0040204
:10260000828004E082884FF6FB731A408280704714
:1026100021B1828842F00102828004E082884FF674
:10262000FE731A40828070471AB183890B438381FD
:1026300002E083898B438381704781827047024621
:102640000020138A0B400BB1012000E000207047EE
:10265000CA430282704730B502460020002300249E
:10266000158A05EA0103958905EA010413B10CB145
:10267000012000E0002030BDCA430282704741EAD9
:102680000203A0F8483070471AB183890B43838155
:1026900002E083898B438381704721B1828842F0B5
:1026A0000802828004E082884FF6F7731A40828025
:1026B000704701894FF6F8721140018170470A4650
:1026C000002101894FF68F73194011430181704732
:1026D00030B504460D4629462046FFF7F0FF208915
:1026E00040F00700208130BD2DE9F04104460D4641
:1026F00016461F46602D06D13B4601223146204634
:10270000FFF775FE05E03B46012231462046FFF704
:10271000A4FE29462046FFF7D2FF208940F007009B
:102720002081BDE8F08130B50C4600210189C9B295
:102730004FF6FF7505EA032515432543294301811B
:1027400030BD2DE9F04105460E4617469846002457
:1027500043463A4631462846FFF7E5FF2C894FF6B7
:10276000F870044044F007044FF68F70044044F0C2
:1027700070042C81BDE8F081F0B504460D46164684
:102780001F463B46324629462046FFF7CCFF2089AC
:1027900040F480402081F0BD82884FF68F731A404C
:1027A000828082880A438280704702894FF6F873DC
:1027B0001A40028102890A430281704702894FF65A
:1027C0007F731A40028102890A4302817047F0B583
:1027D0000C4615461E460021002200230189028B6B
:1027E000038C4FF6F877394021434FF6FC473A40C7
:1027F00040F201173A434FF6DD773B404FF6FF7743
:1028000007EA06172F433B43018102830384F0BD8F
:1028100021B1828842F08002828004E082884FF6F3
:102820007F731A4082807047A0F8501070470000F4
:1028300010B50446FA48844208D101211020FFF760
:1028400000F900211020FFF7FCF857E0F54884421A
:1028500009D101214804FFF7E3F800214FF40030CB
:10286000FFF7DEF84AE0F048844209D101218804EC
:10287000FFF7D6F800214FF48020FFF7D1F83DE0B4
:10288000EA48844209D10121C804FFF7C9F80021B0
:102890004FF40020FFF7C4F830E0E548844209D146
:1028A00001210805FFF7BCF800214FF48010FFF765
:1028B000B7F823E0DF48844208D101212020FFF748
:1028C000C0F800212020FFF7BCF817E0DA48844266
:1028D00009D101218807FFF7A3F800214FF08040BC
:1028E000FFF79EF80AE0D548844207D10121400550
:1028F000FFF796F800216005FFF792F810BD2DE96B
:10290000FF4705460E460024A14600BFA046B089F9
:1029100000B100BF2C8A24F44054F08804432C8278
:10292000AC8941F20C608443B088318908437189D5
:1029300008430443AC81AC8A24F44074B089044356
:10294000AC826846FEF7FDFEB548854202D0B94824
:10295000854202D1DDF80C9001E0DDF80890A889ED
:1029600000F4004040B109EBC90000EB09103168E8
:102970004900B0FBF1F707E009EBC90000EB0910D3
:1029800031688900B0FBF1F76420B7FBF0F0040177
:102990002009642101FB1078A88900F4004040B1AF
:1029A000322000EBC800B0FBF1F000F00700044358
:1029B00008E0322000EB08106421B0FBF1F000F0D9
:1029C0000F0004432C81BDE8FF874FF416510160CE
:1029D00000218180C18001810C2141810021818100
:1029E000704710B502460020108A20F470600B88F2
:1029F0004C8823438C882343CC882343184310827C
:102A000010BD0021018041808180C180704721B1CB
:102A1000828942F40052828104E082894DF6FF737C
:102A20001A4082817047028B02F47F420283028B3C
:102A30000A430283704721B1828942F400428281B5
:102A400003E08289C2F30E028281704721B1828A3B
:102A500042F40062828204E0828A4FF2FF731A40DD
:102A600082827047C1F308028280704701468888DD
:102A7000C0F308007047028A4FF6F0731A400282D2
:102A8000028A0A430282704721B1828942F002021F
:102A9000828104E082894FF6FD731A40828170477B
:102AA00082894FF2FF731A40828182890A438281B0
:102AB0007047028A4FF6DF731A400282028A0A4385
:102AC0000282704721B1028A42F48042028204E00D
:102AD000028A4BF6FF731A4002827047818941F0E7
:102AE00001018181704721B1828A42F0080282820D
:102AF00004E0828A4FF6F7731A4082827047028B95
:102B0000D2B20283028B42EA01220283704721B1D2
:102B1000828A42F02002828204E0828A4FF6DF73CA
:102B20001A408282704721B1828A42F0100282826A
:102B300004E0828A4FF6EF731A4082827047828ADD
:102B40004FF6FB731A408282828A0A438282704760
:102B500021B1828A42F00202828204E0828A4FF628
:102B6000FD731A40828270471AB1838A0B438382B5
:102B700002E0838A8B4383827047F0B503460024CA
:102B800000260025002040F66A17B94200D100BF98
:102B90001846C1F3421401F01F06012707FA06F593
:102BA000012C01D10C3004E0022C01D1103000E0E6
:102BB00014301AB107682F43076002E00768AF437B
:102BC0000760F0BD02460020B1F5007F00D100BFD4
:102BD00013880B400BB1012000E00020704701F486
:102BE0000072B2F5007F00D100BFCA430280704777
:102BF00070B50246002400230025002040F66A1626
:102C0000B14200D100BFC1F3421501F01F030126FC
:102C100006FA03F3012D13D19689334017E0000023
:102C2000001001400044004000480040004C0040BB
:102C3000005000400014014000780040007C00403B
:102C4000022D02D1168A334001E0968A33400C12DD
:102C5000012606FA04F41688344013B10CB10120A1
:102C600000E0002070BD10B50022002340F66A1479
:102C7000A14200D100BF0A1201249440A3B2DC4358
:102C8000048010BD01464FF40030081AC0F38F20B5
:102C900070472DE9F04304460E461546DDE90789E5
:102CA0002046FFF7EFFFC7B2002243E0012090402B
:102CB000304000B93CE0B14830F8170001219140A4
:102CC0000843AE4921F81700E0684FEA420C03219F
:102CD00001FA0CF18843510008FA01F10843E06061
:102CE00020684FEA420C032101FA0CF1884351009D
:102CF00005FA01F108432060012D01D0022D16D103
:102D000061680120904080B221EA000003FA02F1DC
:102D100089B208436060A0684FEA420C032101FABF
:102D20000CF18843510009FA01F10843A06000BF8B
:102D3000501CC2B2102AB9DBBDE8F08300B50246D0
:102D40001046FFF79FFF012101FA00F08C49096846
:102D500008438B49086000BD2DE9FC4305460C463D
:102D600016461F46DDE909890CB9BDE8FC832846F3
:102D7000FFF7E4FF3B46324621462846CDE900896D
:102D8000FFF787FF00BFF0E72DE9FC4705460E4639
:102D900017469846DDE90A9A0EB9BDE8FC87284631
:102DA000FFF7CCFF00241AE00120A040304000B91A
:102DB00014E0E10805F1200050F821006107CA0E77
:102DC0000F21914088436107C90E0AFA01F10843B7
:102DD000E20805F1200141F8220000BF641C102C1C
:102DE000E2D33B46022231462846CDE90089FFF76F
:102DF00050FF00BFD1E770B503460C461846FFF7F9
:102E000041FFC5B2002214E001209040204070B183
:102E1000186856000321B14008431860574830F83D
:102E20001500012191408843544921F81500501C98
:102E3000C2B2102AE8DB70BD30B5024600200BE0BC
:102E4000012383400B402BB1136845000324AC40A1
:102E5000A3431360431CD8B21028F1DB30BD30B55A
:102E6000024600200FE0012383400B404BB1136862
:102E700045000324AC40A34345000124AC40234358
:102E80001360431CD8B21028EDDB30BD30B50246CC
:102E900000200BE0012383400B402BB11368450059
:102EA0000324AC4023431360431CD8B21028F1DB49
:102EB00030BD30B50246002011E0012383400B40B5
:102EC00003B90AE0136845000324AC40A34345005E
:102ED0000224AC402343136000BF431CD8B2102827
:102EE000EBDB30BD70B50346002011E001248440C7
:102EF0000C4004B90AE0DC6846000325B540AC4349
:102F0000450002FA05F52C43DC6000BF441CE0B22A
:102F10001028EBDB70BD41F48032C261C161C26137
:102F2000C369C36970470146002002E0421C90B2A9
:102F300049100129FADC704700B502461046FFF738
:102F4000A1FE012181400E48006888430C490860B9
:102F500000BD00B502461046FFF794FE074931F860
:102F6000100000BD00B502461046FFF78BFE034976
:102F700031F81000C04380B200BD00005C010020A9
:102F80003038024013B5044600BF80212046FFF7C9
:102F900019FE0028F9D09DF80400A0801CBD70B572
:102FA00004460D46E1B2FE48FFF7ECFF204670BD37
:102FB0000146FB4A914200D10020FA4A914200D1D9
:102FC0000120F94A914200D10220F84A914200D1F1
:102FD0000420F74A914200D10520F64A914200D1DF
:102FE0000620704710B5044601212020FEF7D4FCCE
:102FF000092C14D101210420FEF774FC08220621BB
:10300000ED48FEF730F808220721EB48FEF72BF8D1
:10301000C020EA490860E848FDF79AFF16E00A2C4C
:1030200014D101214020FEF75DFC08220E21E44866
:10303000FEF719F808220921E148FEF714F84FF4C9
:103040008440DE490860DE48FDF782FF10BD10B500
:10305000044601210805FEF78EFC082C1DD1012134
:103060000420FEF73FFC01210820FEF73BFC08226C
:103070000C21D148FDF7F7FF08220221D148FDF7C6
:10308000F2FF6002CD490860CB48FDF761FF0420E4
:10309000CA490860CB48FDF75BFF10BD10B5044678
:1030A0000121C804FEF767FC072C14D10121084652
:1030B000FEF718FC08220021C348FDF7D4FF0822C0
:1030C0000121C148FDF7CFFF0320BC490860BE487D
:1030D000FDF73EFF16E0052C14D101210420FEF778
:1030E00001FC08220A21B448FDF7BDFF08220B218C
:1030F000B148FDF7B8FF4FF44060B0490860AE48F2
:10310000FDF726FF10BD10B5044601218804FEF727
:1031100032FC042C15D101210220FEF7E3FB07222B
:103120000A21AA48FDF79FFF07220B21A748FDF7B8
:103130009AFF4FF44060A1490860A448FDF708FFDA
:103140002DE0052C15D101210420FEF7CBFB072231
:103150000A219948FDF787FF07220B219648FDF7C2
:1031600082FF4FF44060954908609348FDF7F0FEF8
:1031700015E0062C13D101210820FEF7B3FB07222E
:1031800008219048FDF76FFF072209218D48FDF7C0
:103190006AFFE001894908608A48FDF7D9FE10BD41
:1031A00010B5044601214804FEF7E5FB022C14D1BA
:1031B00001210846FEF796FB072202218248FDF70F
:1031C00052FF072203218048FDF74DFF0C207B4969
:1031D00008607D48FDF7BCFE15E0032C13D10121EA
:1031E0000820FEF77FFB072205217648FDF73BFF0D
:1031F000072206217348FDF736FF60206F490860FB
:103200007048FDF7A5FE10BD10B504460121102041
:10321000FEF7C2FBACB901210846FEF763FB0722AB
:1032200009216948FDF71FFF07220A216648FDF7BB
:103230001AFF4FF4C060614908606348FDF788FEDB
:1032400015E0012C13D101210220FEF74BFB0722D0
:1032500006215E48FDF707FF072211465B48FDF790
:1032600002FFC020554908605848FDF771FE10BDA7
:1032700070B586B004460D46164602204F490871C7
:10328000002088710120C8710320487102964448CB
:10329000844212D12846FFF7B7FF25208DF804009D
:1032A0000020ADF814000C20ADF812000020ADF89D
:1032B0001000ADF80E00ADF80C003A48844212D16F
:1032C0002846FFF76DFF26208DF804000020ADF89A
:1032D00014000C20ADF812000020ADF81000ADF87D
:1032E0000E00ADF80C003048844212D12846FFF79A
:1032F0000AFF27208DF804000020ADF814000C20F0
:10330000ADF812000020ADF81000ADF80E00ADF8D9
:103310000C002648844212D12846FFF7BFFE342015
:103320008DF804000020ADF814000C20ADF8120058
:103330000020ADF81000ADF80E00ADF80C001C48F0
:10334000844212D12846FFF782FE35208DF8040012
:103350000020ADF814000C20ADF812000020ADF8EC
:103360001000ADF80E00ADF80C001248844212D1E6
:103370002846FFF737FE47208DF804000020ADF8FF
:1033800014000C20ADF812000020ADF81000ADF8CC
:103390000E00ADF80C0000212046FFF738FB17E0C7
:1033A000001001400044004000480040004C004034
:1033B0000050004000140140000802402801002095
:1033C00000180240000C02400000024000040240CD
:1033D0002046FFF72DFA02A92046FFF790FA0121B7
:1033E0002046FFF714FB012240F225512046FFF74B
:1033F000C4FB01208DF8070000208DF80500204651
:10340000FFF7D6FD8DF8060001A8FDF7B0FC06B069
:1034100070BD0146A04A914200D1A048A04A914205
:1034200000D1A048A04A914200D1A048A04A9142B0
:1034300000D1A048A04A914200D1A048A04A9142A0
:1034400000D1A048704730B5044600252046FFF75C
:10345000E0FF0346D88800280EDD58899988884205
:1034600001D1002058815989186845565889401C57
:103470005881D888401ED880E8B230BD10B50446C7
:103480002046FFF7C6FF0346D8889988884201D1B5
:10349000012010BD0020FCE773B506463046FFF75B
:1034A000B8FF0346DD885C890FE09888A04200D110
:1034B0000024186800579DF80410884201D10120AB
:1034C0007CBD601C84B2681E85B2002DEDDC00203E
:1034D000F6E710B503461846FFF79BFF0446E08861
:1034E00008B9012010BD0020FCE7F0B507460D46E5
:1034F000164600243846FFF7ECFF40B90A2138464B
:10350000FFF7CAFF28B93846FFF7B8FF08B900200F
:10351000F0BD0BE03846FFF796FF2855285D0A28D6
:1035200002D1601C84B204E0601C84B2701EA04210
:10353000F0DC00BF002028552046E9E710B504461E
:103540002046FFF766FF03460020D8801881588187
:1035500010BD70B505460C4604E014F8011B284662
:10356000FFF710FD20780028F7D170BD10B5C28894
:1035700083889A420FDA028983889A4201D1002215
:1035800002814AB2048903681A550289521C0281D9
:10359000C288521CC28010BD10B540F225513E4871
:1035A000FFF726FB28B13C488088C1B23B48FFF7B3
:1035B000DDFF10BD10B540F225513948FFF718FB6B
:1035C00030B13748001D0088C1B23648FFF7CEFF42
:1035D00010BD10B540F225513348FFF709FB70B319
:1035E00040F225512E48FFF73EFB2F48FFF73EFAE9
:1035F0003549364A1268885434480068401C3349BB
:1036000008602948FFF732FA652818D130A12E4802
:1036100000F0F4FE044621462E4800F007FF2D4836
:1036200000F0DEFE2C4908601421274800F022FF3C
:103630001421284800F01EFF00202449086010BD16
:1036400010B540F225511A48FFF7D2FA30B11848A8
:10365000001D0088C1B21748FFF788FF10BD10B5E4
:1036600040F225511448FFF7C3FA28B11248808868
:10367000C1B21248FFF77AFF10BD10B540F22551D4
:103680000F48FFF7B5FA30B10D48001D0088C1B2F0
:103690000C48FFF76BFF10BD00100140E000002058
:1036A00000440040EC00002000480040F8000020EA
:1036B000004C004004010020005000401001002098
:1036C000001401401C01002086010020D8000020C9
:1036D0002C000000720100204400002070471CB53F
:1036E00004469CB9042001210B460A46CDE900108E
:1036F0008101FB48FFF748FB042001210B460A46E5
:10370000CDE90010C101F748FFF73EFB012C0AD1BB
:10371000042001210B460A46CDE900104FF4C07188
:10372000F148FFF731FB032C03D10421EF48FFF7E9
:10373000D5FF1CBD1CB5044654B9042001210B461D
:103740000A46CDE900104FF44061E948FFF71CFB41
:10375000012C09D1042001210B460A46CDE90010B5
:103760000321E448FFF710FB022C09D104200121BA
:103770000B460A46CDE900103021DB48FFF704FB79
:10378000032C03D10421DC48FFF7A8FF1CBD1CB5A6
:1037900004464CB9042001210B460A46CDE900102D
:1037A000C021D348FFF7F0FA012C0AD104200121EF
:1037B0000B460A46CDE900104FF44071CC48FFF7A4
:1037C000E3FA022C0AD1042001210B460A46CDE976
:1037D00000104FF41071C648FFF7D6FA032C03D13E
:1037E0000421C648FFF77AFF1CBD7FB504460E468C
:1037F0001546C248844221D1C148006840F40010F7
:10380000BF4908603046FFF7C2FFBE480068A842C3
:1038100001D9BC480560BB48006800904FF4804067
:10382000ADF80C000020ADF80400ADF80800ADF8CC
:103830000A004BF6FF70ADF8060048E0AE4884423F
:1038400021D1AF48006840F48000AD49086030469F
:10385000FFF770FFAB484068A84201D9A94845600E
:10386000A848406800904FF48040ADF80C0000205C
:10387000ADF80400ADF80800ADF80A004BF6FF7093
:10388000ADF8060023E09948844220D19C480068A6
:1038900040F400009A4908603046FFF720FF99483D
:1038A0008068A84201D99748856096488068009052
:1038B0004FF48040ADF80C000020ADF80400ADF8E6
:1038C0000800ADF80A004BF6FF70ADF8060020883E
:1038D00020F00100208069462046FDF726FC208864
:1038E00040F0010020807FBD70B50446208820F4A0
:1038F00080602080208840F40070208044F62060A2
:103900008149086007E080480068401E7E490860E1
:1039100008B9012070BD7D492046FDF79DFD0028B6
:10392000F1D0208AC5B22846F4E72DE9F0410446DB
:103930000D4616461F46208840F48070208044F6CD
:1039400020607149086008E06F480068401E6E49B9
:10395000086010B90120BDE8F081A08A00F00100E4
:103960000028F1D01FB1208840F480602080A6B9E3
:1039700025F00100208244F620606349086007E0DA
:1039800061480068401E6049086008B90120E2E70C
:10399000A08A00F002000028F2D0012E16D145F0D6
:1039A0000100208244F620605749086007E056482D
:1039B0000068401E5449086008B90120CBE753490C
:1039C0003E392046FDF748FD0028F0D0208B00202E
:1039D000C1E7014644F620604B4A106007E04A48C0
:1039E0000068401E484A106008B901207047888A64
:1039F00000F080000028F2D0888A00F0040000283F
:103A0000EDD0088840F4007008800020EEE744F60E
:103A100020623D4B1A6004E03B4A1268521E3A4B4A
:103A20001A60828A02F080021AB9374A1268002AA4
:103A3000F2D1018270472DE9F04105460E46144649
:103A400000231A4631462846FFF76FFF21462846D5
:103A5000FFF7DDFF2846FFF7BCFF002301223146B8
:103A60002846FFF762FF2846FFF73EFF0746384625
:103A7000BDE8F08170B50446208840F48060208065
:103A800044F620602049086007E01F480068401E97
:103A90001D49086008B9012070BD1C492046FDF78A
:103AA000DBFC0028F1D0208AC5B22846F4E72DE9D6
:103AB000F0410746884615461C46069E0123002213
:103AC00041463846FFF731FF29463846FFF79FFF4A
:103AD00001231A4641463846FFF727FF24E000003D
:103AE0000000024000080240001C0240005C004050
:103AF00000040240001402400058004000540040FE
:103B00004038024034010020300100204000030012
:103B10002EB93846FFF7E8FE04F8010B04E03846FA
:103B2000FFF7A8FF04F8010B301EA6F101018EB2C9
:103B3000EED1BDE8F08170B504460D4601231A466A
:103B400029462046FFF7F1FE2046FFF7CDFE064648
:103B5000304670BD2DE9F04106460F4614461D461D
:103B600001231A4639463046FFF7DFFE09E025B942
:103B70003046FFF7B9FE207003E03046FFF77AFFCA
:103B80002070281EA5F101018DB2F0D1BDE8F081B1
:103B90002DE9F04106460F4614461D4600231A46FD
:103BA00039463046FFF7C1FE21463046FFF72FFF6A
:103BB00029463046FFF72BFF3046FFF70AFFBDE8E6
:103BC000F0812DE9F04106460F4615461C46DDF80A
:103BD000188000231A4639463046FFF7A6FE2946CC
:103BE0003046FFF714FF04E014F8011B3046FFF7DE
:103BF0000EFFB8F10000A8F101011FFA81F8F3D11E
:103C00003046FFF7E6FEBDE8F08170B505460E468A
:103C1000144600231A4631462846FFF786FE214601
:103C20002846FFF7F4FE2846FFF7D3FE70BD2DE9C6
:103C3000F04106460F4614461D4600231A463946F3
:103C40003046FFF772FE04E014F8011B3046FFF720
:103C5000DEFE281EA5F101018DB2F5D13046FFF739
:103C6000B8FEBDE8F08170B504460D46002601237C
:103C7000002229462046FFF758FE00B901262046BB
:103C8000FFF7A7FE304670BD10B58B480068401C9A
:103C9000894908608948006820B188480068401E4A
:103CA00086490860FCF7B1FE002438E0844850F8EB
:103CB000240090B3824850F82400007B68B3804809
:103CC00050F82400806840B37D4850F82400806894
:103CD000401E7B4951F824108860794850F8240030
:103CE0008068D0B9764A52F824205069744A52F854
:103CF000242011698847724850F8240001687048F0
:103D000050F8240081606E4850F82400406820B9C3
:103D100000216B4850F824000173601CC4B268484D
:103D2000001F0078A042C1DC10BD30B565480068B6
:103D3000654AB0FBF2F1481EB0F1807F01D301204B
:103D40001BE0481E4FF0E022506150170F22002860
:103D500007DA13071D0E5D4B00F00F04241F1D55DD
:103D600003E013071C0E5A4B1C5400BF00204FF0F9
:103D7000E022906107201061002008B100BFFEE73B
:103D8000504800685349B0FBF1F0534908600120E6
:103D90005249087030BD5148007800B970474FF063
:103DA000E020006940F002004FF0E021086100BF10
:103DB000F4E74FF0E020006920F002004FF0E0212E
:103DC000086170472DE9F04705460E4617469846AC
:103DD000DDF820903A48001F0078052802DB00201B
:103DE000BDE8F087182000F04FF904460CB9002018
:103DF000F6E725602068A06066602773C4F810802D
:103E0000C4F814902E48001F01780078401C2C4AFA
:103E1000121F1070101D40F821402046E0E72DE9E8
:103E2000F0410646002407E0254850F82400B0423F
:103E300000D106E0601CC4B22148001F0078A042F7
:103E4000F2DC00BF1E48001F0078A04201D1BDE88F
:103E5000F0811B4850F8247000BFEFF31080054636
:103E600072B607E01648611C50F8211040F8241083
:103E7000601CC4B21248001F0078401EA042F1DC52
:103E80000F48001F0078401E0D49091F087005B932
:103E900062B6384600F027F900BFD8E70021017369
:103EA000704701210173704701688160704741606C
:103EB0007047016070470000440100204801002065
:103EC00060020020B400002040420F0018ED00E026
:103ED00000E400E0C0C62D004C010020500100208D
:103EE00008B566490968009100BFEFF3058139B94B
:103EF00000BF62490968009A891A8142F9D309E032
:103F000006E04FF0E021096901F4803101B1401E63
:103F10000028F6D108BD1CB501210820FDF7E2FC00
:103F2000012000908DF8040000208DF80600032089
:103F30008DF8050000208DF8070069465048FDF710
:103F400007F81CBD1CB501210820FDF7CBFC0120A2
:103F5000009000208DF804008DF8060003208DF8F5
:103F6000050000208DF8070069464548FCF7F0FF82
:103F70001CBD10B5FFF7CFFF01214148FDF764F8E4
:103F800001213F48FDF762F844F25060FFF7A8FFB7
:103F900001213B48FDF758F81A20FFF7A1FFFFF772
:103FA000D1FF10BD70B5002400251BE06006040E93
:103FB00000BF01213248FDF72DF80028F9D01E205E
:103FC000FFF78EFF01212E48FDF724F808B144F0D9
:103FD000010400BF01212A48FDF71CF80028F9D18F
:103FE000681CC5B2082DE1DB204670BD70B5002409
:103FF0000025FFF7BEFF01212148FDF70BF808B1AE
:10400000012070BD5020FFF76BFF01211C48FDF718
:1040100001F808B90220F4E75020FFF761FF0024FF
:1040200005E0FFF7BFFF17490855601CC4B2042C18
:10403000F7DDFFF770FF01211148FDF705F80024B7
:1040400005E01048005D2844C5B2601CC4B2042CD1
:10405000F7DB0C480079A84201D00320D1E700200B
:10406000CFE70849087870470649487870470549FE
:10407000887870470349C8787047000044010020E1
:10408000000C02405101002070B5064600F03EFAD7
:10409000056806F10B0020F00704B4429CBF002025
:1040A00070BD2B466A68BAB11068A04210D304F103
:1040B000080188423CBF5068586007D35168101906
:1040C00041601168091B016058601460101D70BDCB
:1040D00013465268002AE7D12146284600F022FA0A
:1040E0000028DED170BD70B50446051F00F00EFA41
:1040F0000068002C14BF446870BD002C18BFAC428F
:104100003CBF20466468F8D301680A18AA4218BF69
:10411000456003D12A6805461144016028684119A9
:10412000A1421CBF6C6070BD616869602168084471
:10413000286070BD0FB41CB5084B06AA7B446946C5
:104140000090059800F0E3FA04460020694600F06C
:10415000F1FA20461CBC5DF814FB0000F5050000D8
:104160000FB41CB5084B06AA7B446946009005981D
:1041700000F0CDFA04460020694600F0DBFA204644
:104180001CBC5DF814FB0000C905000070B50C46AE
:104190000546012A05D02878800600D5EA69002363
:1041A00002E0012305E05B1C934202D2E05C0028A0
:1041B000F9D1A869E618C01AA861286A18442862CB
:1041C000284600F0F9F904E0D5E9012114F8010BC3
:1041D0009047B442F8D3284600F004FA70BD0000BE
:1041E0002DE9F0410646002410687529314616A5D0
:1041F00010D000F008FA002802DA404213A507E0C8
:1042000031688A0701D512A502E0490704D511A536
:10421000012401E000F000FA00210A2206F124073F
:1042200009E0B0FBF2FCB0FBF2F302FB1C00303003
:1042300078541846491C0028F3D123462A463046B4
:10424000BDE8F04100F0F1B9000000002D000000D1
:104250002B000000200000002DE9F05F8946044695
:104260004FF0000ADFF874B1FB44C0F820A02046EC
:10427000E1688847002874D0252806D0D4E90121B8
:104280009047206A401C2062F1E700265F462046E6
:10429000E16888472028054607DB312D05D27819CB
:1042A00010F8200C08B10643F1E7B00701D526F05D
:1042B0000406C4F81CA00027C4F818A02A2D09D0B1
:1042C000284601F0C1FD38B304EB8708303DC8F83B
:1042D000185019E059F8041B204604EB870291613D
:1042E000E1688847012F054618D1E069002820DAE7
:1042F00026F020061DE0D8F8180000EB800005EB42
:1043000040003038C8F818002046E1688847054664
:1043100001F09AFD0028EED1012F0AD02E2D08D1F0
:104320002046E16888477F1C0546022F46F020069C
:10433000C4DBA069002803DA404246F00106A06110
:10434000F00701D026F010066C2D0BD0682D09D097
:104350004C2D39D06A2D35D0742D35D07A2D33D0EF
:1043600016E038E0E1682F4620468847B842054607
:1043700009D16C2F26D04FF48060E16806432046B7
:104380008847054604E06C2F1AD04FF4807006432E
:104390000DB3A5F14100192802D8203546F4006676
:1043A0004A462946204626604E46FBF747FF80B125
:1043B00001280BD0F61D26F0070000F1080956E78A
:1043C0004020E4E78020D8E70020D6E706F1040982
:1043D0004DE7284652E7206ABDE8F09FFE20000026
:1043E00070B5064600F096F80468054630460A2285
:1043F000002100F0D9FA2C6070BD0000014A00F0E5
:104400000BBB00005801002030B505460B462A467C
:1044100013F8014B12F8010B08B1A042F8D01CB1FF
:10442000002802D06D1CF1E7284630BD40EA0103A8
:10443000024630B59B0710D14FF0013400E008C2AE
:1044400008C91D1B9D4315EAC41FF8D013F0FF01D6
:1044500002F8011B0DD01B0AF8E711F8013B002BF5
:1044600002F8013B05D011F8013B002B02F8013B9B
:10447000F3D130BD4FF000020429C0F0128010F0DB
:10448000030C00F01B80CCF1040CBCF1020F18BF30
:1044900000F8012BA8BF20F8022BA1EB0C0100F0C3
:1044A0000DB85FEAC17C24BF00F8012B00F8012B96
:1044B00048BF00F8012B70474FF0000200B51346CB
:1044C00094469646203922BFA0E80C50A0E80C5034
:1044D000B1F12001BFF4F7AF090728BFA0E80C50E5
:1044E00048BF0CC05DF804EB890028BF40F8042BDE
:1044F00008BF704748BF20F8022B11F0804F18BF4B
:1045000000F8012B704770477047704700487047AC
:104510007C020020004870477402002070477047FA
:104520007047704738B504460A4600206946AFF325
:104530000080002808BF38BD02460099204600F0E0
:1045400099FA012038BD012000F003BFF8B5AFF3A0
:104550000080054600200C46102000BF0646A81922
:10456000A0420DD9324669460020AFF30080070013
:1045700008BF00F0EEFE0098A04218BF0546C4191F
:10458000FFF7C4FF05600746F01D20F0070046193D
:10459000284600F00AF8B44208BFF8BDA21B314615
:1045A0003868BDE8F84000F065BA00210160C0E954
:1045B000011070471020704770B504468569006887
:1045C000C10601D5302600E02026C00707D070BD07
:1045D000D4E9012130469047206A401C20626D1EBC
:1045E000F6D570BD70B5044685690078C00707D15F
:1045F00070BDD4E9012120209047206A401C206230
:104600006D1EF6D570BD09684A0501D540B27047E8
:10461000C905FCD500B2704709684A0501D5C0B28A
:104620007047C905FCD580B270472DE9F0470D46AB
:1046300099469246044600F124080168880604D58C
:10464000E06921F01001216000E00120A84201DDB5
:10465000471B00E00027A1697A1902EB0900081A3C
:10466000A0612078C00602D42046FFF7A5FF0026EF
:1046700008E0D4E901211AF806009047206A401C9E
:10468000761C20624E45F4DB2078C0060AD5204611
:10469000FFF792FF06E0D4E9012130209047206A1D
:1046A000401C2062381EA7F10107F4DC07E0D4E9C2
:1046B000012118F805009047206A401C2062281E3E
:1046C000A5F10105F3DC2046FFF78CFF20780006FA
:1046D00002D50220BDE8F0870120FBE711680268DF
:1046E000006A530501D508700AE0D30501D508809A
:1046F00006E0130603D5C217C1E9000200E0086016
:104700000120704701694A1C02610878704700B5B2
:104710008FB0CDE901310021059105497944CDE9FA
:10472000031011466846FFF797FD0FB000BD00006B
:10473000E5FFFFFF0A6802F8010B0A60704710B539
:10474000436913B1AFF3008001E0FFF71FFD0120C3
:1047500010BD127800F124010A7000224A70012273
:10476000EDE711684FF0FF32E9E700002DE9FF5F48
:1047700015468A460446DFF8AC80F8440027D8E99D
:1047800000103E46CDE9001010E03AF816106A46D7
:1047900002A800F0BEFD411C07D02178890603D590
:1047A000E269391891420DD80744761C20788006BA
:1047B00002D5E069B84205DDAE42E6DB3AF8160004
:1047C0000028E2D1A069C01BA0612046FFF7F4FEDB
:1047D000D8E90010CDE90010002017E03AF81810D1
:1047E0006A4602A800F095FDB0F1FF3F81460BD06C
:1047F00000250DF1080B05E0D4E901211BF80500A7
:1048000090476D1C4D45F7D308F10100B04280463A
:10481000E4DB206A384420622046FFF7E3FEBDE86F
:10482000FF9F0000FE1B00002DE9F0418046D21DD5
:1048300022F007020025D2E90002F52915A614D0BE
:10484000011E72F1000106DA0023D0EB030063EBD6
:10485000020211A608E0D8F800108B0701D50FA6B8
:1048600002E0490701D50EA601251146002408F1F2
:10487000240704E000F018F930323A55641C50EA7D
:104880000102F7D12B46324621464046BDE8F041B1
:10489000FFF7CBBE000000002D0000002B00000041
:1048A0002000000030B4002100F1240408E002F0F0
:1048B0000705D208303542EA4372DB086554491CCB
:1048C00052EA0305F3D10468002310A2250707D597
:1048D000A40600D421B1C46901230DA2641EC461E1
:1048E00030BCFFF7A2BE10B5044621461068FFF7A2
:1048F00093FE02462046BDE810400023D2E7D21DB9
:1049000022F00701D1E90023CCE7000000000000FD
:1049100030000000F0B40D460188090502D5214C95
:104920007C4402E01F4C7C440E34002100F124063C
:1049300008E002F00F071209E75D42EA03721B0963
:104940007754491C52EA0307F3D102780023120777
:1049500004D5702D06D009B1022311342246F0BCD3
:10496000FFF763BE01231034F8E770B504460D4627
:1049700021461068FFF750FE024629462046BDE852
:1049800070400023C6E7D21D22F00703D3E90023BD
:10499000C0E70368126843F0200303600823C36183
:1049A0000023B7E7601A00002DE9F04791460F4653
:1049B00080460446002614F8015B2DB100F052F841
:1049C0000068405DC007F6D12B2D02D02D2D18D0E8
:1049D000641E4A463946204600F04CFC27B139682F
:1049E000A14201D1C7F800804FF0020471050BD538
:1049F0004042002803DDFFF78DFD0460A007BDE8FD
:104A0000F08746F48066E4E70028F8DAFFF782FDD5
:104A100004606FF00040F2E72DE9F04115460E46C4
:104A2000040002D12C6804B90BA4204600F0A8FCB5
:104A30000444207870B127463146384600F090FC97
:104A40000444207810B1002004F8010B38462C6093
:104A5000BDE8F0810027F9E700000000004870473A
:104A60007402002010B500F0BFFC001D10BD00BF97
:104A7000E9130000034640688C46002818BF8842AE
:104A80003CBF03464068F8D318681844884207D0F2
:104A90000CF1030020F00700001D411A521A0146D4
:104AA000081D0A60FFF71FBB30B5B0F10A024FEADC
:104AB000900E71F100034EEA817EB0EB0E0061EBC7
:104AC00091014FEA101E4EEA017E10EB0E0041EB01
:104AD00011114FEA102E4EEA016E10EB0E0041EB61
:104AE00011214FEA104E4EEA014E10EB0E0041EB41
:104AF0001141401841F100014FEAD00040EA4170F5
:104B00004FEAD10110EB80054FEA810444EA90742A
:104B100044EB01046D1944EB0404521BA3414FF014
:104B2000000348BF0A3200D530BD401C41F10001EE
:104B300030BD70472DE9FF4F0C461E464FF0FF3742
:104B40008BB0D2E90001DDF860800A908A46C1F39B
:104B50000A5505B93D46002108464FF00000BAF15C
:104B6000000F00F4400005DA00EB80004FF4400134
:104B700001EA50004FEA9059B9F1010F00DDB94642
:104B80000A9850EA4A000ED044F61050A5F2FF35BC
:104B900045432F14B8F1000F1ED07542291E1EDDAB
:104BA000C9F100021CE0B8F1010F4FF0000001D084
:104BB000302103E0F24305E02154401CB042FBDB0E
:104BC00030460022002121540B99C1F80880C1E928
:104BD00000200FB0BDE8F08FBD1B6D1CDEE74A461C
:104BE00000DA694206A800F051FC06AB93E8070022
:104BF00003AB83E8070050460A9900F052FD8DE8A8
:104C00000700A0F500501F3800900398002D09DD23
:104C100042F21F014A46084403A90390684600F087
:104C2000B1FF08E0A0F500504A461F3803A90390E1
:104C3000684600F0BBFF8DE807000004000C03D0BD
:104C40004FF0FF30410800E01046B8F1000F03D0EC
:104C50000022009215461EE0751E05D4FFF724FFC2
:104C6000303262556D1EF9D5B3460122084302D099
:104C700000227F1C04E02078302801D100227F1E12
:104C8000002A099786D01DE0112D07DAFFF70CFFE7
:104C9000303262556D1C50EA0102F5D1084302D052
:104CA0000098C8B10EE00021681E05E0235C625C3C
:104CB00063542254401E491C8142F7DBAB46A81BBB
:104CC000401E0990002004F80B000B98099AC0F8C8
:104CD0000880C0E9002B7CE711264FF0000859E757
:104CE0002DE9F04F88460446D21D22F0070191B00D
:104CF000D1E90001CDE90A0101F08EF802460B98D6
:104D0000C00F01D02D2007E02068810701D52B209E
:104D100002E0202101EAC000032A099001D0072AFD
:104D200005DB03464146204600F062FB0BE120789C
:104D3000800601D5E06900E00620B8F1650F8146E4
:104D400006D0B8F1660F18D0B8F1670F70D131E016
:104D50000020B9F1110F009001DB112301E009F1EE
:104D600001030AAA01A90CA8FFF7E4FEDDE90C7013
:104D7000002609F10105834647E001204B460090DB
:104D80004FF000470AAA01A90CA8FFF7D3FEDDE9FE
:104D90000DB00C995D46002610B909F101000D18FF
:104DA000B9EB050003D4C0F1FF3609F10105A5EB0D
:104DB00009002BE0B9F1010F01DA4FF001090020E1
:104DC000B9F1110F0090484601DD112300E00346C0
:104DD0000AAA01A90CA8FFF7ADFEDDE90C704D464B
:104DE00000268346207800070AD4AB4500DA5D46EA
:104DF00001A8012D04DD411911F8011C302907D04B
:104E00004F4502DA17F1040F04DA012082460FE061
:104E10006D1EEEE7002F02DCED1B3E4403E0781C24
:104E2000A84200DD7D1CB81B00F1010A4FF00047CD
:104E30002078000703D4AA4501DB4FF0FF3A002198
:104E4000B7F1004F0DF143088DF8431024D0022034
:104E50002B23002F01DA7F422D230A21021EA0F10D
:104E6000010000DC5FB197FBF1FC97FBF1F201FB65
:104E70001C7C17460CF1300C08F801CDEEE7A8F1C8
:104E8000010003702188090501D5452100E0652155
:104E9000A0F1010800F8011C09980FA9A1EB08076F
:104EA000FF1D00B10120411901EBEA70A1693844EE
:104EB000081A401EA0612078C00602D42046FFF7E1
:104EC0007BFB099828B1D4E901219047206A401C56
:104ED00020622078C00622D52046FFF76DFB1EE039
:104EE000002E04DBB34502DD01A8805D00E0302028
:104EF000D4E901219047206A401C2062761CAAF167
:104F000001005FEA000A0AD100F06EFAC068016889
:104F1000405CD4E901219047206A401C2062281E91
:104F2000A5F10105DCDC07E0D4E9012118F8010B4B
:104F30009047206A401C2062381EA7F10107F3DC6D
:104F40002046FFF74FFB032011B043E62DE9F04F59
:104F500004460D46D21D22F0070089B0D0E9009723
:104F60004846394600F058FF0246F80F01D02D237D
:104F700007E02068810701D52B2302E0202101EA08
:104F8000C0038DF820300BB1012000E00020032A7F
:104F9000824601D0072A04DB2946204600F028FA81
:104FA0003FE12078800601D40D2500E0E569C7F3D4
:104FB0000A560D2D49DA00214FEA175B08464FF0DB
:104FC0000000002F00F4400007DA00EB80004FF4EF
:104FD000400100EBD07001EA60008115012901DD7C
:104FE0004FF0FF3100224FEA850CBCF1180F06D3B9
:104FF0001346ACF118004FF08052C24003E04FF46A
:10500000801323FA0CF30CF10C0CBCF1200F04D329
:10501000ACF1200C09FA0CF001E007FA0CF00029C1
:105020004FF0004801DD18B90FE00ED140450CD318
:1050300019EB02095F4121B9404502D19F4329EA9A
:105040000209BBEB175F00D0761C2088000502D553
:105050007B48784402E07A487844193808AA30231B
:1050600002F80A30037C0AF10101002E0AF1020A5B
:1050700053546A4602DC4FF0300101E04FF0310139
:105080004FF001088DF8001002D0A6F2FF3603E0C1
:1050900059EA470100D06B4E002D02DC2178090748
:1050A00004D54FF002082E218DF80110C4460021CE
:1050B0000BE0C7F303433F01C35C491C6D1E02F8BC
:1050C0000830052908F1010801DA002DF1DC002182
:1050D0000CE000EB1973491C1B786D1E082902F8BF
:1050E00008304FEA091908F1010801DA002DF0DC57
:1050F00021688B0602D516E0A8F10108E04505DD20
:1051000002EB080313F8013C302BF5D0B8F1000F87
:1051100009DD02EB080313F8013C2E2B03D109072C
:1051200001D4A8F10108002D05DD3E2102F8081088
:105130006D1E08F10108407C002E02F8080008F1FD
:10514000010804DA2D20764202F8080002E02B2044
:1051500002F808000A214FF47A70864208F101082B
:105160000BDB96FBF0F3303302F8083096FBF0F3DC
:1051700008F1010800FB136601E0642E0CDB6420DB
:1051800096FBF0F3303302F8083096FBF0F308F1A9
:10519000010800FB136601E00A2E06DB96FBF1F026
:1051A000303002F8080008F1010896FBF1F001FB2D
:1051B0001060303002F80800A16908F1010808EB1E
:1051C000050202EB0A00081AA0612078C00602D48A
:1051D0002046FFF7F1F9216A08AE01EB0A002062D0
:1051E00004E0D4E9012116F8010B9047BAF1010A55
:1051F000F7D22078C00602D52046FFF7DDF96E46CB
:1052000009E016F8010B3E280FD0D4E901219047A0
:10521000206A401C2062B8F10108F2D22046FFF754
:10522000E1F909B00320BDE8F08F206A284420622C
:1052300003E0D4E90121302090476D1EEBD3F8E75D
:105240006913000002FCFFFF10B5436913B1AFF30F
:10525000008001E0FFF78AFA012010BD128800F1FA
:10526000240182840022C2840122EDE711684FF0FC
:10527000FF32E9E72DE9F05F824615468B460027AD
:105280000AF10104B9460078302801D09DB113E03D
:1052900014F8010B0127782803D0582801D045B114
:1052A0000AE00DB1102D07D1002714F8010B1025CD
:1052B00002E0082500E00A250026B0460EE005FBC6
:1052C000080005FB06F101271FFA80F801EB1046E4
:1052D000B6F5803F00D3B94614F8010B294600F01B
:1052E000C7F80028EBDABBF1000F05D00FB1641E40
:1052F00000E05446CBF80040B9F1000F06D0FFF7AC
:1053000009F902210160C81EBDE8F09F48EA064085
:10531000FAE770B516460C460546FFF7A3FB03688F
:1053200093F80101012806D0FF2C0FD8185D68B151
:1053300001202C7070BDD3F807013246214603F2DC
:10534000071303442846BDE8704018474FF0FF306C
:1053500070BD10B500F016F9BDE8104000F00DB9B1
:1053600030B503461D781DB10A4603E0AC4201D1B9
:10537000181A30BD12F8014B002CF7D15B1CF1E775
:1053800030B503461D783DB10A4612F8014B1CB1F9
:10539000AC42FAD15B1CF5E7181A30BD7047754670
:1053A000FFF75CFBAE4605006946534620F0070058
:1053B000854618B020B5FBF7C3FCBDE820404FF090
:1053C00000064FF000074FF000084FF0000B21F0EF
:1053D0000701AC46ACE8C009ACE8C009ACE8C009BC
:1053E000ACE8C0098D467047004870479402002021
:1053F0002DE9F0411F46044603260168072A01F4FF
:10540000006004DB08B116A505E016A503E008B1AD
:1054100015A500E015A521F010002060A069C01EB0
:10542000A0610FB1401EA0612046FFF7C5F84FB143
:10543000D4E9012138469047206A401C2062C01CF4
:10544000206206E0206AFAE7D4E9012115F8010B91
:105450009047761EF8D22046FFF7C4F8BDE8F081E9
:105460004E414E006E616E00494E4600696E660008
:105470003A2800D2303820F02002412A01D3A2F18C
:105480003700884201D34FF0FF3070472DE9F047D5
:10549000814616468AB0334878440DC88DE80D0021
:1054A00030487844801C03AC0DC884E80D0041F6F8
:1054B0009B300844372190FBF1F290FBF1F5A5F108
:1054C000800501FB12041B3C02D56442012000E070
:1054D0000020DFF890A080460027FA44AAF1BE0A17
:1054E0000DE0E00709D03246684607EB47010AEBBA
:1054F000810100F05BFB8DE8070064107F1C002C2D
:10550000EFD1184F7F44AC3F18E0E80714D007EB09
:1055100004100DF1180A90E80E008AE80E00C06829
:10552000F04201D198190890324606A903A800F06C
:105530003DFB03AB83E807006D10641C002DE4D134
:1055400032466946B8F1000F03A802D000F01AFBFA
:1055500001E000F02BFBC9E90001C9F808200AB0FE
:10556000BDE8F087B40F000010B50446AFF300802B
:105570002046BDE81040FAF7CABE002801D000F06E
:1055800029B8704710B5012805D0002103A000F00C
:1055900027F8012010BD09A1F8E700005349475240
:1055A000544D454D3A204F7574206F6620686561F3
:1055B00070206D656D6F7279000000003A204865BB
:1055C0006170206D656D6F727920636F7272757096
:1055D0007465640001491820ABBEFEE72600020096
:1055E00070B505460C460A2000E06D1C00F052F82C
:1055F00035B128780028F8D102E0641C00F04AF8A0
:1056000014B120780028F8D1BDE870400A2000F0DD
:1056100041B800004FF0013C50F8042B51F8043B16
:105620009A4221D1A2EB0C03934313EACC1317D176
:1056300050F8042B51F8043B9A4215D1A2EB0C030D
:10564000934313EACC130BD150F8042B51F8043BCD
:105650009A4209D1A2EB0C03934313EACC13DBD09B
:105660004FF00000704700BFD01A01BAB1FA81F1C3
:1056700001F0180122FA01F0CB40C1F12001DBB2A8
:10568000C0B2C01A2CFA01F3D11A914311EAC31126
:10569000E6D1704708B569468DF800000320ABBE1F
:1056A00008BD5FEA400C08BF91F0000F4FEA8C2361
:1056B0004FEAC12243EA51514FEA1C5018BF00F58E
:1056C000F0404FEA300018BF41F000415FEA6C5CE7
:1056D00000F02980BCF1FF3F08BF40F080407047D8
:1056E000130C06BF12044FF0100C4FF0000C130EF9
:1056F00004BF12020CF1080C130F04BF12010CF1CD
:10570000040C930F04BF92000CF1020CD30F04BFE2
:1057100052000CF1010C11464FF00002A0F11F00E5
:10572000A0EB0C00704711F0004F08BF704731F03C
:1057300000413FF4D5AF0B0C06BF09044FF0100C2D
:105740004FF0000C0B0E04BF09020CF1080C0B0FFC
:1057500004BF09010CF1040C8B0F04BF89000CF18C
:10576000020CCB0F04BF49000CF1010CCCF120035B
:10577000A0EB0C0022FA03F302FA0CF241EA030157
:1057800000F10100704720F07F4C80EA030023F015
:105790007F47ACEB070303F57C5300F0004003F1B7
:1057A000FF032DE980494FEA154B09B44FEA144332
:1057B00025EA0B4E24EA03480FF2042606EB1327D2
:1057C00049083E785FEA320203FB0667C7F5000727
:1057D00007FB06F64FEA54374FEAD64606F10206B3
:1057E00007FB066CCCF1005C4FEA1C472CEA074C27
:1057F00007FB06F40CFB06F504EB15464FEA96167C
:1058000034BF00204FF000404FEAD13706FB07FCC1
:105810004FEA1C4C0CFB0BF7D21B03FB0CF761EBA4
:1058200007010CFB0EF7B0EB074072EB17420CFBC5
:1058300008F734BFA2EB0742B2EB074261EB174116
:105840004FEA0C444FEA910706FB07FC4FEA1C4C59
:105850000CFB0BF7B0EBC74072EB573203FB0CF7B6
:1058600034BFA2EBC742B2EBC74261EB57310CFB2E
:105870000EF7B0EBC70072EB57720CFB08F734BFA2
:10588000A2EBC702B2EBC70261EB5771039F4FEA6D
:10589000816141EA921104EBCC044FEAD1374FEA1F
:1058A000826206FB07FC42EA90124FEA80604FEAF0
:1058B0001C4C0CFB0BF7D21B03FB0CF761EB070135
:1058C0000CFB0EF7B0EB074072EB17420CFB08F72E
:1058D00034BFA2EB0742B2EB074261EB17414FEA3C
:1058E0008C554FEA910704EB9C2406FB07FC4FEA1A
:1058F0001C4C0CFB0BF7B0EBC74072EB573203FBB1
:105900000CF734BFA2EBC742B2EBC74261EB573191
:105910000CFB0EF7B0EBC70072EB57720CFB08F7ED
:1059200034BFA2EBC702B2EBC70261EB577115EBB4
:105930004C254FEA816141EA92114FEA82624FEAB7
:10594000D13742EA901206FB07FC44F100044FEA0B
:1059500080604FEA1C4C0CFB0BF7D21B03FB0CF7CF
:1059600061EB07010CFB0EF7B0EB074072EB17423F
:105970000CFB08F734BFA2EB0742B2EB074261EB26
:10598000174115EB1C154FEA813141EA92414FEA6C
:10599000823242EA90424FEA80304FEA0C7644F17C
:1059A000000448EA03434EEA0B484FF0000EB2EB06
:1059B000080C71EB030724BF624639464EEB0E0E0E
:1059C0004FF0000B0018524149414BEB0B0BB2EB6F
:1059D000080C71EB03077BF1000B24BF62463946CC
:1059E0004EEB0E0E4FF0000B0018524149414BEBAD
:1059F0000B0BB2EB080C71EB03077BF1000B24BF20
:105A0000624639464EEB0E0E51EA020718BF46F0C9
:105A1000010616EB0E7655F1000254F1000103D594
:105A2000BDE88901BDE80088BDE88901BDE80048FE
:105A3000B619524141EB0101A3F101037047808087
:105A40007F7E7D7C7B7A79787776767574737271D8
:105A500071706F6E6E6D6C6C6B6A6A696868676690
:105A600066656464636362616160605F5F5E5E5D22
:105A70005D5C5C5B5B5A5A59595858575756565596
:105A800055555454535352525251515050504F4FF8
:105A90004F4E4E4D4D4D4C4C4C4B4B4B4A4A4A4948
:105AA000494948484847474747464646454545448B
:105AB0004444444343434342424242414141002B18
:105AC00026D4770021D01CB54FEA370703B44FF036
:105AD00010004FF010014FF000000FBCBDE8104067
